{
  "_format": "hh-sol-artifact-1",
  "contractName": "Election",
  "sourceName": "contracts/Election.sol",
  "abi": [
    {
      "inputs": [],
      "stateMutability": "nonpayable",
      "type": "constructor"
    },
    {
      "inputs": [],
      "name": "MAX_CANDIDATES",
      "outputs": [
        {
          "internalType": "uint256",
          "name": "",
          "type": "uint256"
        }
      ],
      "stateMutability": "view",
      "type": "function"
    },
    {
      "inputs": [
        {
          "internalType": "uint256",
          "name": "",
          "type": "uint256"
        }
      ],
      "name": "candidateList",
      "outputs": [
        {
          "internalType": "address",
          "name": "",
          "type": "address"
        }
      ],
      "stateMutability": "view",
      "type": "function"
    },
    {
      "inputs": [
        {
          "internalType": "address",
          "name": "",
          "type": "address"
        }
      ],
      "name": "candidates",
      "outputs": [
        {
          "internalType": "string",
          "name": "name",
          "type": "string"
        },
        {
          "internalType": "address",
          "name": "addr",
          "type": "address"
        },
        {
          "internalType": "uint256",
          "name": "voteCount",
          "type": "uint256"
        }
      ],
      "stateMutability": "view",
      "type": "function"
    },
    {
      "inputs": [
        {
          "internalType": "address",
          "name": "_addr",
          "type": "address"
        }
      ],
      "name": "getCandidate",
      "outputs": [
        {
          "internalType": "string",
          "name": "name",
          "type": "string"
        },
        {
          "internalType": "uint256",
          "name": "voteCount",
          "type": "uint256"
        }
      ],
      "stateMutability": "view",
      "type": "function"
    },
    {
      "inputs": [],
      "name": "getCandidateCount",
      "outputs": [
        {
          "internalType": "uint256",
          "name": "",
          "type": "uint256"
        }
      ],
      "stateMutability": "view",
      "type": "function"
    },
    {
      "inputs": [],
      "name": "getCandidates",
      "outputs": [
        {
          "components": [
            {
              "internalType": "string",
              "name": "name",
              "type": "string"
            },
            {
              "internalType": "address",
              "name": "addr",
              "type": "address"
            },
            {
              "internalType": "uint256",
              "name": "voteCount",
              "type": "uint256"
            }
          ],
          "internalType": "struct Election.Candidate[]",
          "name": "",
          "type": "tuple[]"
        }
      ],
      "stateMutability": "view",
      "type": "function"
    },
    {
      "inputs": [],
      "name": "getVoterCount",
      "outputs": [
        {
          "internalType": "uint256",
          "name": "",
          "type": "uint256"
        }
      ],
      "stateMutability": "view",
      "type": "function"
    },
    {
      "inputs": [
        {
          "internalType": "address",
          "name": "_addr",
          "type": "address"
        }
      ],
      "name": "hasVoted",
      "outputs": [
        {
          "internalType": "bool",
          "name": "",
          "type": "bool"
        },
        {
          "internalType": "address",
          "name": "",
          "type": "address"
        }
      ],
      "stateMutability": "view",
      "type": "function"
    },
    {
      "inputs": [
        {
          "internalType": "string[]",
          "name": "names",
          "type": "string[]"
        }
      ],
      "name": "initializeCandidates",
      "outputs": [],
      "stateMutability": "nonpayable",
      "type": "function"
    },
    {
      "inputs": [],
      "name": "owner",
      "outputs": [
        {
          "internalType": "address",
          "name": "",
          "type": "address"
        }
      ],
      "stateMutability": "view",
      "type": "function"
    },
    {
      "inputs": [
        {
          "internalType": "string",
          "name": "_name",
          "type": "string"
        }
      ],
      "name": "registerAsCandidate",
      "outputs": [],
      "stateMutability": "nonpayable",
      "type": "function"
    },
    {
      "inputs": [
        {
          "internalType": "address",
          "name": "_candidateAddr",
          "type": "address"
        }
      ],
      "name": "vote",
      "outputs": [],
      "stateMutability": "nonpayable",
      "type": "function"
    },
    {
      "inputs": [
        {
          "internalType": "uint256",
          "name": "",
          "type": "uint256"
        }
      ],
      "name": "voterList",
      "outputs": [
        {
          "internalType": "address",
          "name": "",
          "type": "address"
        }
      ],
      "stateMutability": "view",
      "type": "function"
    },
    {
      "inputs": [
        {
          "internalType": "address",
          "name": "",
          "type": "address"
        }
      ],
      "name": "voters",
      "outputs": [
        {
          "internalType": "bool",
          "name": "hasVoted",
          "type": "bool"
        },
        {
          "internalType": "address",
          "name": "votedCandidate",
          "type": "address"
        }
      ],
      "stateMutability": "view",
      "type": "function"
    }
  ],
  "bytecode": "0x6080604052348015600f57600080fd5b50336000806101000a81548173ffffffffffffffffffffffffffffffffffffffff021916908373ffffffffffffffffffffffffffffffffffffffff1602179055506120518061005f6000396000f3fe608060405234801561001057600080fd5b50600436106100ea5760003560e01c80638da5cb5b1161008c578063b14517d111610066578063b14517d114610277578063b52087c114610293578063b7adcf1d146102af578063f0786096146102e0576100ea565b80638da5cb5b146101f8578063a3ec138d14610216578063b13c744b14610247576100ea565b806330a56347116100c857806330a563471461015c57806350e2e8af1461017a5780636dd7d8ea146101aa5780638ab66a90146101c6576100ea565b806306a49fce146100ef57806309eef43e1461010d57806311174a291461013e575b600080fd5b6100f76102fe565b60405161010491906113d0565b60405180910390f35b61012760048036038101906101229190611432565b61051a565b604051610135929190611489565b60405180910390f35b6101466105f0565b60405161015391906114c1565b60405180910390f35b6101646105fd565b60405161017191906114c1565b60405180910390f35b610194600480360381019061018f9190611508565b61060a565b6040516101a19190611535565b60405180910390f35b6101c460048036038101906101bf9190611432565b610649565b005b6101e060048036038101906101db9190611432565b610940565b6040516101ef9392919061159a565b60405180910390f35b610200610a12565b60405161020d9190611535565b60405180910390f35b610230600480360381019061022b9190611432565b610a36565b60405161023e929190611489565b60405180910390f35b610261600480360381019061025c9190611508565b610a87565b60405161026e9190611535565b60405180910390f35b610291600480360381019061028c91906117f3565b610ac6565b005b6102ad60048036038101906102a8919061183c565b610da3565b005b6102c960048036038101906102c49190611432565b611041565b6040516102d7929190611885565b60405180910390f35b6102e8611198565b6040516102f591906114c1565b60405180910390f35b6060600060028054905067ffffffffffffffff811115610321576103206115dd565b5b60405190808252806020026020018201604052801561035a57816020015b61034761119d565b81526020019060019003908161033f5790505b50905060005b600280549050811015610512576001600060028381548110610385576103846118b5565b5b9060005260206000200160009054906101000a900473ffffffffffffffffffffffffffffffffffffffff1673ffffffffffffffffffffffffffffffffffffffff1673ffffffffffffffffffffffffffffffffffffffff16815260200190815260200160002060405180606001604052908160008201805461040590611913565b80601f016020809104026020016040519081016040528092919081815260200182805461043190611913565b801561047e5780601f106104535761010080835404028352916020019161047e565b820191906000526020600020905b81548152906001019060200180831161046157829003601f168201915b505050505081526020016001820160009054906101000a900473ffffffffffffffffffffffffffffffffffffffff1673ffffffffffffffffffffffffffffffffffffffff1673ffffffffffffffffffffffffffffffffffffffff1681526020016002820154815250508282815181106104fa576104f96118b5565b5b60200260200101819052508080600101915050610360565b508091505090565b6000806000600360008573ffffffffffffffffffffffffffffffffffffffff1673ffffffffffffffffffffffffffffffffffffffff1681526020019081526020016000206040518060400160405290816000820160009054906101000a900460ff161515151581526020016000820160019054906101000a900473ffffffffffffffffffffffffffffffffffffffff1673ffffffffffffffffffffffffffffffffffffffff1673ffffffffffffffffffffffffffffffffffffffff16815250509050806000015181602001519250925050915091565b6000600480549050905090565b6000600280549050905090565b6004818154811061061a57600080fd5b906000526020600020016000915054906101000a900473ffffffffffffffffffffffffffffffffffffffff1681565b600360003373ffffffffffffffffffffffffffffffffffffffff1673ffffffffffffffffffffffffffffffffffffffff16815260200190815260200160002060000160009054906101000a900460ff16156106d9576040517f08c379a00000000000000000000000000000000000000000000000000000000081526004016106d090611990565b60405180910390fd5b600073ffffffffffffffffffffffffffffffffffffffff16600160008373ffffffffffffffffffffffffffffffffffffffff1673ffffffffffffffffffffffffffffffffffffffff16815260200190815260200160002060010160009054906101000a900473ffffffffffffffffffffffffffffffffffffffff1673ffffffffffffffffffffffffffffffffffffffff16036107aa576040517f08c379a00000000000000000000000000000000000000000000000000000000081526004016107a1906119fc565b60405180910390fd5b60405180604001604052806001151581526020018273ffffffffffffffffffffffffffffffffffffffff16815250600360003373ffffffffffffffffffffffffffffffffffffffff1673ffffffffffffffffffffffffffffffffffffffff16815260200190815260200160002060008201518160000160006101000a81548160ff02191690831515021790555060208201518160000160016101000a81548173ffffffffffffffffffffffffffffffffffffffff021916908373ffffffffffffffffffffffffffffffffffffffff16021790555090505060018060008373ffffffffffffffffffffffffffffffffffffffff1673ffffffffffffffffffffffffffffffffffffffff16815260200190815260200160002060020160008282546108d39190611a4b565b925050819055506004339080600181540180825580915050600190039060005260206000200160009091909190916101000a81548173ffffffffffffffffffffffffffffffffffffffff021916908373ffffffffffffffffffffffffffffffffffffffff16021790555050565b600160205280600052604060002060009150905080600001805461096390611913565b80601f016020809104026020016040519081016040528092919081815260200182805461098f90611913565b80156109dc5780601f106109b1576101008083540402835291602001916109dc565b820191906000526020600020905b8154815290600101906020018083116109bf57829003601f168201915b5050505050908060010160009054906101000a900473ffffffffffffffffffffffffffffffffffffffff16908060020154905083565b60008054906101000a900473ffffffffffffffffffffffffffffffffffffffff1681565b60036020528060005260406000206000915090508060000160009054906101000a900460ff16908060000160019054906101000a900473ffffffffffffffffffffffffffffffffffffffff16905082565b60028181548110610a9757600080fd5b906000526020600020016000915054906101000a900473ffffffffffffffffffffffffffffffffffffffff1681565b60008054906101000a900473ffffffffffffffffffffffffffffffffffffffff1673ffffffffffffffffffffffffffffffffffffffff163373ffffffffffffffffffffffffffffffffffffffff1614610b54576040517f08c379a0000000000000000000000000000000000000000000000000000000008152600401610b4b90611acb565b60405180910390fd5b600060028054905014610b9c576040517f08c379a0000000000000000000000000000000000000000000000000000000008152600401610b9390611b37565b60405180910390fd5b600581511115610be1576040517f08c379a0000000000000000000000000000000000000000000000000000000008152600401610bd890611ba3565b60405180910390fd5b60005b8151811015610d9f576000828281518110610c0257610c016118b5565b5b60200260200101514283604051602001610c1e93929190611c20565b6040516020818303038152906040528051906020012060001c90506040518060600160405280848481518110610c5757610c566118b5565b5b602002602001015181526020018273ffffffffffffffffffffffffffffffffffffffff1681526020016000815250600160008373ffffffffffffffffffffffffffffffffffffffff1673ffffffffffffffffffffffffffffffffffffffff1681526020019081526020016000206000820151816000019081610cd99190611e05565b5060208201518160010160006101000a81548173ffffffffffffffffffffffffffffffffffffffff021916908373ffffffffffffffffffffffffffffffffffffffff160217905550604082015181600201559050506002819080600181540180825580915050600190039060005260206000200160009091909190916101000a81548173ffffffffffffffffffffffffffffffffffffffff021916908373ffffffffffffffffffffffffffffffffffffffff160217905550508080600101915050610be4565b5050565b6000815111610de7576040517f08c379a0000000000000000000000000000000000000000000000000000000008152600401610dde90611f23565b60405180910390fd5b600073ffffffffffffffffffffffffffffffffffffffff16600160003373ffffffffffffffffffffffffffffffffffffffff1673ffffffffffffffffffffffffffffffffffffffff16815260200190815260200160002060010160009054906101000a900473ffffffffffffffffffffffffffffffffffffffff1673ffffffffffffffffffffffffffffffffffffffff1614610eb8576040517f08c379a0000000000000000000000000000000000000000000000000000000008152600401610eaf90611f8f565b60405180910390fd5b600560028054905010610f00576040517f08c379a0000000000000000000000000000000000000000000000000000000008152600401610ef790611ffb565b60405180910390fd5b60405180606001604052808281526020013373ffffffffffffffffffffffffffffffffffffffff1681526020016000815250600160003373ffffffffffffffffffffffffffffffffffffffff1673ffffffffffffffffffffffffffffffffffffffff1681526020019081526020016000206000820151816000019081610f869190611e05565b5060208201518160010160006101000a81548173ffffffffffffffffffffffffffffffffffffffff021916908373ffffffffffffffffffffffffffffffffffffffff160217905550604082015181600201559050506002339080600181540180825580915050600190039060005260206000200160009091909190916101000a81548173ffffffffffffffffffffffffffffffffffffffff021916908373ffffffffffffffffffffffffffffffffffffffff16021790555050565b6060600080600160008573ffffffffffffffffffffffffffffffffffffffff1673ffffffffffffffffffffffffffffffffffffffff1681526020019081526020016000206040518060600160405290816000820180546110a090611913565b80601f01602080910402602001604051908101604052809291908181526020018280546110cc90611913565b80156111195780601f106110ee57610100808354040283529160200191611119565b820191906000526020600020905b8154815290600101906020018083116110fc57829003601f168201915b505050505081526020016001820160009054906101000a900473ffffffffffffffffffffffffffffffffffffffff1673ffffffffffffffffffffffffffffffffffffffff1673ffffffffffffffffffffffffffffffffffffffff1681526020016002820154815250509050806000015181604001519250925050915091565b600581565b604051806060016040528060608152602001600073ffffffffffffffffffffffffffffffffffffffff168152602001600081525090565b600081519050919050565b600082825260208201905092915050565b6000819050602082019050919050565b600081519050919050565b600082825260208201905092915050565b60005b8381101561123a57808201518184015260208101905061121f565b60008484015250505050565b6000601f19601f8301169050919050565b600061126282611200565b61126c818561120b565b935061127c81856020860161121c565b61128581611246565b840191505092915050565b600073ffffffffffffffffffffffffffffffffffffffff82169050919050565b60006112bb82611290565b9050919050565b6112cb816112b0565b82525050565b6000819050919050565b6112e4816112d1565b82525050565b600060608301600083015184820360008601526113078282611257565b915050602083015161131c60208601826112c2565b50604083015161132f60408601826112db565b508091505092915050565b600061134683836112ea565b905092915050565b6000602082019050919050565b6000611366826111d4565b61137081856111df565b935083602082028501611382856111f0565b8060005b858110156113be578484038952815161139f858261133a565b94506113aa8361134e565b925060208a01995050600181019050611386565b50829750879550505050505092915050565b600060208201905081810360008301526113ea818461135b565b905092915050565b6000604051905090565b600080fd5b600080fd5b61140f816112b0565b811461141a57600080fd5b50565b60008135905061142c81611406565b92915050565b600060208284031215611448576114476113fc565b5b60006114568482850161141d565b91505092915050565b60008115159050919050565b6114748161145f565b82525050565b611483816112b0565b82525050565b600060408201905061149e600083018561146b565b6114ab602083018461147a565b9392505050565b6114bb816112d1565b82525050565b60006020820190506114d660008301846114b2565b92915050565b6114e5816112d1565b81146114f057600080fd5b50565b600081359050611502816114dc565b92915050565b60006020828403121561151e5761151d6113fc565b5b600061152c848285016114f3565b91505092915050565b600060208201905061154a600083018461147a565b92915050565b600082825260208201905092915050565b600061156c82611200565b6115768185611550565b935061158681856020860161121c565b61158f81611246565b840191505092915050565b600060608201905081810360008301526115b48186611561565b90506115c3602083018561147a565b6115d060408301846114b2565b949350505050565b600080fd5b7f4e487b7100000000000000000000000000000000000000000000000000000000600052604160045260246000fd5b61161582611246565b810181811067ffffffffffffffff82111715611634576116336115dd565b5b80604052505050565b60006116476113f2565b9050611653828261160c565b919050565b600067ffffffffffffffff821115611673576116726115dd565b5b602082029050602081019050919050565b600080fd5b600080fd5b600067ffffffffffffffff8211156116a9576116a86115dd565b5b6116b282611246565b9050602081019050919050565b82818337600083830152505050565b60006116e16116dc8461168e565b61163d565b9050828152602081018484840111156116fd576116fc611689565b5b6117088482856116bf565b509392505050565b600082601f830112611725576117246115d8565b5b81356117358482602086016116ce565b91505092915050565b600061175161174c84611658565b61163d565b9050808382526020820190506020840283018581111561177457611773611684565b5b835b818110156117bb57803567ffffffffffffffff811115611799576117986115d8565b5b8086016117a68982611710565b85526020850194505050602081019050611776565b5050509392505050565b600082601f8301126117da576117d96115d8565b5b81356117ea84826020860161173e565b91505092915050565b600060208284031215611809576118086113fc565b5b600082013567ffffffffffffffff81111561182757611826611401565b5b611833848285016117c5565b91505092915050565b600060208284031215611852576118516113fc565b5b600082013567ffffffffffffffff8111156118705761186f611401565b5b61187c84828501611710565b91505092915050565b6000604082019050818103600083015261189f8185611561565b90506118ae60208301846114b2565b9392505050565b7f4e487b7100000000000000000000000000000000000000000000000000000000600052603260045260246000fd5b7f4e487b7100000000000000000000000000000000000000000000000000000000600052602260045260246000fd5b6000600282049050600182168061192b57607f821691505b60208210810361193e5761193d6118e4565b5b50919050565b7f416c726561647920766f74656400000000000000000000000000000000000000600082015250565b600061197a600d83611550565b915061198582611944565b602082019050919050565b600060208201905081810360008301526119a98161196d565b9050919050565b7f496e76616c69642063616e646964617465000000000000000000000000000000600082015250565b60006119e6601183611550565b91506119f1826119b0565b602082019050919050565b60006020820190508181036000830152611a15816119d9565b9050919050565b7f4e487b7100000000000000000000000000000000000000000000000000000000600052601160045260246000fd5b6000611a56826112d1565b9150611a61836112d1565b9250828201905080821115611a7957611a78611a1c565b5b92915050565b7f4f6e6c79206f776e657200000000000000000000000000000000000000000000600082015250565b6000611ab5600a83611550565b9150611ac082611a7f565b602082019050919050565b60006020820190508181036000830152611ae481611aa8565b9050919050565b7f416c726561647920696e697469616c697a656400000000000000000000000000600082015250565b6000611b21601383611550565b9150611b2c82611aeb565b602082019050919050565b60006020820190508181036000830152611b5081611b14565b9050919050565b7f546f6f206d616e7920696e697469616c2063616e646964617465730000000000600082015250565b6000611b8d601b83611550565b9150611b9882611b57565b602082019050919050565b60006020820190508181036000830152611bbc81611b80565b9050919050565b600081905092915050565b6000611bd982611200565b611be38185611bc3565b9350611bf381856020860161121c565b80840191505092915050565b6000819050919050565b611c1a611c15826112d1565b611bff565b82525050565b6000611c2c8286611bce565b9150611c388285611c09565b602082019150611c488284611c09565b602082019150819050949350505050565b60008190508160005260206000209050919050565b60006020601f8301049050919050565b600082821b905092915050565b600060088302611cbb7fffffffffffffffffffffffffffffffffffffffffffffffffffffffffffffffff82611c7e565b611cc58683611c7e565b95508019841693508086168417925050509392505050565b6000819050919050565b6000611d02611cfd611cf8846112d1565b611cdd565b6112d1565b9050919050565b6000819050919050565b611d1c83611ce7565b611d30611d2882611d09565b848454611c8b565b825550505050565b600090565b611d45611d38565b611d50818484611d13565b505050565b5b81811015611d7457611d69600082611d3d565b600181019050611d56565b5050565b601f821115611db957611d8a81611c59565b611d9384611c6e565b81016020851015611da2578190505b611db6611dae85611c6e565b830182611d55565b50505b505050565b600082821c905092915050565b6000611ddc60001984600802611dbe565b1980831691505092915050565b6000611df58383611dcb565b9150826002028217905092915050565b611e0e82611200565b67ffffffffffffffff811115611e2757611e266115dd565b5b611e318254611913565b611e3c828285611d78565b600060209050601f831160018114611e6f5760008415611e5d578287015190505b611e678582611de9565b865550611ecf565b601f198416611e7d86611c59565b60005b82811015611ea557848901518255600182019150602085019450602081019050611e80565b86831015611ec25784890151611ebe601f891682611dcb565b8355505b6001600288020188555050505b505050505050565b7f4e616d6520726571756972656400000000000000000000000000000000000000600082015250565b6000611f0d600d83611550565b9150611f1882611ed7565b602082019050919050565b60006020820190508181036000830152611f3c81611f00565b9050919050565b7f416c726561647920612063616e64696461746500000000000000000000000000600082015250565b6000611f79601383611550565b9150611f8482611f43565b602082019050919050565b60006020820190508181036000830152611fa881611f6c565b9050919050565b7f4d61782063616e64696461746573207265616368656400000000000000000000600082015250565b6000611fe5601683611550565b9150611ff082611faf565b602082019050919050565b6000602082019050818103600083015261201481611fd8565b905091905056fea264697066735822122007bc546d0a940b31a2c9263d6d8069f6ec90df45421bbb13ef7184010480c69164736f6c634300081c0033",
  "linkReferences": {},
  "deployedLinkReferences": {}
}