{
  "_format": "hh-sol-artifact-1",
  "contractName": "Election",
  "sourceName": "contracts/Election.sol",
  "abi": [
    {
      "inputs": [],
      "stateMutability": "nonpayable",
      "type": "constructor"
    },
    {
      "inputs": [],
      "name": "MAX_CANDIDATES",
      "outputs": [
        {
          "internalType": "uint256",
          "name": "",
          "type": "uint256"
        }
      ],
      "stateMutability": "view",
      "type": "function"
    },
    {
      "inputs": [
        {
          "internalType": "uint256",
          "name": "",
          "type": "uint256"
        }
      ],
      "name": "candidateList",
      "outputs": [
        {
          "internalType": "address",
          "name": "",
          "type": "address"
        }
      ],
      "stateMutability": "view",
      "type": "function"
    },
    {
      "inputs": [
        {
          "internalType": "address",
          "name": "",
          "type": "address"
        }
      ],
      "name": "candidates",
      "outputs": [
        {
          "internalType": "string",
          "name": "name",
          "type": "string"
        },
        {
          "internalType": "address",
          "name": "addr",
          "type": "address"
        },
        {
          "internalType": "uint256",
          "name": "voteCount",
          "type": "uint256"
        }
      ],
      "stateMutability": "view",
      "type": "function"
    },
    {
      "inputs": [
        {
          "internalType": "address",
          "name": "_addr",
          "type": "address"
        }
      ],
      "name": "getCandidate",
      "outputs": [
        {
          "internalType": "string",
          "name": "name",
          "type": "string"
        },
        {
          "internalType": "uint256",
          "name": "voteCount",
          "type": "uint256"
        }
      ],
      "stateMutability": "view",
      "type": "function"
    },
    {
      "inputs": [],
      "name": "getCandidateCount",
      "outputs": [
        {
          "internalType": "uint256",
          "name": "",
          "type": "uint256"
        }
      ],
      "stateMutability": "view",
      "type": "function"
    },
    {
      "inputs": [],
      "name": "getCandidates",
      "outputs": [
        {
          "components": [
            {
              "internalType": "string",
              "name": "name",
              "type": "string"
            },
            {
              "internalType": "address",
              "name": "addr",
              "type": "address"
            },
            {
              "internalType": "uint256",
              "name": "voteCount",
              "type": "uint256"
            }
          ],
          "internalType": "struct Election.Candidate[]",
          "name": "",
          "type": "tuple[]"
        }
      ],
      "stateMutability": "view",
      "type": "function"
    },
    {
      "inputs": [],
      "name": "getVoterCount",
      "outputs": [
        {
          "internalType": "uint256",
          "name": "",
          "type": "uint256"
        }
      ],
      "stateMutability": "view",
      "type": "function"
    },
    {
      "inputs": [
        {
          "internalType": "address",
          "name": "_addr",
          "type": "address"
        }
      ],
      "name": "hasVoted",
      "outputs": [
        {
          "internalType": "bool",
          "name": "",
          "type": "bool"
        },
        {
          "internalType": "address",
          "name": "",
          "type": "address"
        }
      ],
      "stateMutability": "view",
      "type": "function"
    },
    {
      "inputs": [],
      "name": "owner",
      "outputs": [
        {
          "internalType": "address",
          "name": "",
          "type": "address"
        }
      ],
      "stateMutability": "view",
      "type": "function"
    },
    {
      "inputs": [
        {
          "internalType": "string",
          "name": "_name",
          "type": "string"
        }
      ],
      "name": "registerAsCandidate",
      "outputs": [],
      "stateMutability": "nonpayable",
      "type": "function"
    },
    {
      "inputs": [
        {
          "internalType": "address",
          "name": "_candidateAddr",
          "type": "address"
        }
      ],
      "name": "vote",
      "outputs": [],
      "stateMutability": "nonpayable",
      "type": "function"
    },
    {
      "inputs": [
        {
          "internalType": "uint256",
          "name": "",
          "type": "uint256"
        }
      ],
      "name": "voterList",
      "outputs": [
        {
          "internalType": "address",
          "name": "",
          "type": "address"
        }
      ],
      "stateMutability": "view",
      "type": "function"
    },
    {
      "inputs": [
        {
          "internalType": "address",
          "name": "",
          "type": "address"
        }
      ],
      "name": "voters",
      "outputs": [
        {
          "internalType": "bool",
          "name": "hasVoted",
          "type": "bool"
        },
        {
          "internalType": "address",
          "name": "votedCandidate",
          "type": "address"
        }
      ],
      "stateMutability": "view",
      "type": "function"
    }
  ],
  "bytecode": "0x6080604052348015600f57600080fd5b50336000806101000a81548173ffffffffffffffffffffffffffffffffffffffff021916908373ffffffffffffffffffffffffffffffffffffffff160217905550611a338061005f6000396000f3fe608060405234801561001057600080fd5b50600436106100cf5760003560e01c80638ab66a901161008c578063b13c744b11610066578063b13c744b1461022c578063b52087c11461025c578063b7adcf1d14610278578063f0786096146102a9576100cf565b80638ab66a90146101ab5780638da5cb5b146101dd578063a3ec138d146101fb576100cf565b806306a49fce146100d457806309eef43e146100f257806311174a291461012357806330a563471461014157806350e2e8af1461015f5780636dd7d8ea1461018f575b600080fd5b6100dc6102c7565b6040516100e991906110bb565b60405180910390f35b61010c6004803603810190610107919061111d565b6104e3565b60405161011a929190611174565b60405180910390f35b61012b6105b9565b60405161013891906111ac565b60405180910390f35b6101496105c6565b60405161015691906111ac565b60405180910390f35b610179600480360381019061017491906111f3565b6105d3565b6040516101869190611220565b60405180910390f35b6101a960048036038101906101a4919061111d565b610612565b005b6101c560048036038101906101c0919061111d565b610909565b6040516101d493929190611285565b60405180910390f35b6101e56109db565b6040516101f29190611220565b60405180910390f35b6102156004803603810190610210919061111d565b6109ff565b604051610223929190611174565b60405180910390f35b610246600480360381019061024191906111f3565b610a50565b6040516102539190611220565b60405180910390f35b610276600480360381019061027191906113f8565b610a8f565b005b610292600480360381019061028d919061111d565b610d2c565b6040516102a0929190611441565b60405180910390f35b6102b1610e83565b6040516102be91906111ac565b60405180910390f35b6060600060028054905067ffffffffffffffff8111156102ea576102e96112cd565b5b60405190808252806020026020018201604052801561032357816020015b610310610e88565b8152602001906001900390816103085790505b50905060005b6002805490508110156104db57600160006002838154811061034e5761034d611471565b5b9060005260206000200160009054906101000a900473ffffffffffffffffffffffffffffffffffffffff1673ffffffffffffffffffffffffffffffffffffffff1673ffffffffffffffffffffffffffffffffffffffff1681526020019081526020016000206040518060600160405290816000820180546103ce906114cf565b80601f01602080910402602001604051908101604052809291908181526020018280546103fa906114cf565b80156104475780601f1061041c57610100808354040283529160200191610447565b820191906000526020600020905b81548152906001019060200180831161042a57829003601f168201915b505050505081526020016001820160009054906101000a900473ffffffffffffffffffffffffffffffffffffffff1673ffffffffffffffffffffffffffffffffffffffff1673ffffffffffffffffffffffffffffffffffffffff1681526020016002820154815250508282815181106104c3576104c2611471565b5b60200260200101819052508080600101915050610329565b508091505090565b6000806000600360008573ffffffffffffffffffffffffffffffffffffffff1673ffffffffffffffffffffffffffffffffffffffff1681526020019081526020016000206040518060400160405290816000820160009054906101000a900460ff161515151581526020016000820160019054906101000a900473ffffffffffffffffffffffffffffffffffffffff1673ffffffffffffffffffffffffffffffffffffffff1673ffffffffffffffffffffffffffffffffffffffff16815250509050806000015181602001519250925050915091565b6000600480549050905090565b6000600280549050905090565b600481815481106105e357600080fd5b906000526020600020016000915054906101000a900473ffffffffffffffffffffffffffffffffffffffff1681565b600360003373ffffffffffffffffffffffffffffffffffffffff1673ffffffffffffffffffffffffffffffffffffffff16815260200190815260200160002060000160009054906101000a900460ff16156106a2576040517f08c379a00000000000000000000000000000000000000000000000000000000081526004016106999061154c565b60405180910390fd5b600073ffffffffffffffffffffffffffffffffffffffff16600160008373ffffffffffffffffffffffffffffffffffffffff1673ffffffffffffffffffffffffffffffffffffffff16815260200190815260200160002060010160009054906101000a900473ffffffffffffffffffffffffffffffffffffffff1673ffffffffffffffffffffffffffffffffffffffff1603610773576040517f08c379a000000000000000000000000000000000000000000000000000000000815260040161076a906115b8565b60405180910390fd5b60405180604001604052806001151581526020018273ffffffffffffffffffffffffffffffffffffffff16815250600360003373ffffffffffffffffffffffffffffffffffffffff1673ffffffffffffffffffffffffffffffffffffffff16815260200190815260200160002060008201518160000160006101000a81548160ff02191690831515021790555060208201518160000160016101000a81548173ffffffffffffffffffffffffffffffffffffffff021916908373ffffffffffffffffffffffffffffffffffffffff16021790555090505060018060008373ffffffffffffffffffffffffffffffffffffffff1673ffffffffffffffffffffffffffffffffffffffff168152602001908152602001600020600201600082825461089c9190611607565b925050819055506004339080600181540180825580915050600190039060005260206000200160009091909190916101000a81548173ffffffffffffffffffffffffffffffffffffffff021916908373ffffffffffffffffffffffffffffffffffffffff16021790555050565b600160205280600052604060002060009150905080600001805461092c906114cf565b80601f0160208091040260200160405190810160405280929190818152602001828054610958906114cf565b80156109a55780601f1061097a576101008083540402835291602001916109a5565b820191906000526020600020905b81548152906001019060200180831161098857829003601f168201915b5050505050908060010160009054906101000a900473ffffffffffffffffffffffffffffffffffffffff16908060020154905083565b60008054906101000a900473ffffffffffffffffffffffffffffffffffffffff1681565b60036020528060005260406000206000915090508060000160009054906101000a900460ff16908060000160019054906101000a900473ffffffffffffffffffffffffffffffffffffffff16905082565b60028181548110610a6057600080fd5b906000526020600020016000915054906101000a900473ffffffffffffffffffffffffffffffffffffffff1681565b6000815111610ad3576040517f08c379a0000000000000000000000000000000000000000000000000000000008152600401610aca90611687565b60405180910390fd5b600073ffffffffffffffffffffffffffffffffffffffff16600160003373ffffffffffffffffffffffffffffffffffffffff1673ffffffffffffffffffffffffffffffffffffffff16815260200190815260200160002060010160009054906101000a900473ffffffffffffffffffffffffffffffffffffffff1673ffffffffffffffffffffffffffffffffffffffff1614610ba4576040517f08c379a0000000000000000000000000000000000000000000000000000000008152600401610b9b906116f3565b60405180910390fd5b6002808054905010610beb576040517f08c379a0000000000000000000000000000000000000000000000000000000008152600401610be29061175f565b60405180910390fd5b60405180606001604052808281526020013373ffffffffffffffffffffffffffffffffffffffff1681526020016000815250600160003373ffffffffffffffffffffffffffffffffffffffff1673ffffffffffffffffffffffffffffffffffffffff1681526020019081526020016000206000820151816000019081610c71919061192b565b5060208201518160010160006101000a81548173ffffffffffffffffffffffffffffffffffffffff021916908373ffffffffffffffffffffffffffffffffffffffff160217905550604082015181600201559050506002339080600181540180825580915050600190039060005260206000200160009091909190916101000a81548173ffffffffffffffffffffffffffffffffffffffff021916908373ffffffffffffffffffffffffffffffffffffffff16021790555050565b6060600080600160008573ffffffffffffffffffffffffffffffffffffffff1673ffffffffffffffffffffffffffffffffffffffff168152602001908152602001600020604051806060016040529081600082018054610d8b906114cf565b80601f0160208091040260200160405190810160405280929190818152602001828054610db7906114cf565b8015610e045780601f10610dd957610100808354040283529160200191610e04565b820191906000526020600020905b815481529060010190602001808311610de757829003601f168201915b505050505081526020016001820160009054906101000a900473ffffffffffffffffffffffffffffffffffffffff1673ffffffffffffffffffffffffffffffffffffffff1673ffffffffffffffffffffffffffffffffffffffff1681526020016002820154815250509050806000015181604001519250925050915091565b600281565b604051806060016040528060608152602001600073ffffffffffffffffffffffffffffffffffffffff168152602001600081525090565b600081519050919050565b600082825260208201905092915050565b6000819050602082019050919050565b600081519050919050565b600082825260208201905092915050565b60005b83811015610f25578082015181840152602081019050610f0a565b60008484015250505050565b6000601f19601f8301169050919050565b6000610f4d82610eeb565b610f578185610ef6565b9350610f67818560208601610f07565b610f7081610f31565b840191505092915050565b600073ffffffffffffffffffffffffffffffffffffffff82169050919050565b6000610fa682610f7b565b9050919050565b610fb681610f9b565b82525050565b6000819050919050565b610fcf81610fbc565b82525050565b60006060830160008301518482036000860152610ff28282610f42565b91505060208301516110076020860182610fad565b50604083015161101a6040860182610fc6565b508091505092915050565b60006110318383610fd5565b905092915050565b6000602082019050919050565b600061105182610ebf565b61105b8185610eca565b93508360208202850161106d85610edb565b8060005b858110156110a9578484038952815161108a8582611025565b945061109583611039565b925060208a01995050600181019050611071565b50829750879550505050505092915050565b600060208201905081810360008301526110d58184611046565b905092915050565b6000604051905090565b600080fd5b600080fd5b6110fa81610f9b565b811461110557600080fd5b50565b600081359050611117816110f1565b92915050565b600060208284031215611133576111326110e7565b5b600061114184828501611108565b91505092915050565b60008115159050919050565b61115f8161114a565b82525050565b61116e81610f9b565b82525050565b60006040820190506111896000830185611156565b6111966020830184611165565b9392505050565b6111a681610fbc565b82525050565b60006020820190506111c1600083018461119d565b92915050565b6111d081610fbc565b81146111db57600080fd5b50565b6000813590506111ed816111c7565b92915050565b600060208284031215611209576112086110e7565b5b6000611217848285016111de565b91505092915050565b60006020820190506112356000830184611165565b92915050565b600082825260208201905092915050565b600061125782610eeb565b611261818561123b565b9350611271818560208601610f07565b61127a81610f31565b840191505092915050565b6000606082019050818103600083015261129f818661124c565b90506112ae6020830185611165565b6112bb604083018461119d565b949350505050565b600080fd5b600080fd5b7f4e487b7100000000000000000000000000000000000000000000000000000000600052604160045260246000fd5b61130582610f31565b810181811067ffffffffffffffff82111715611324576113236112cd565b5b80604052505050565b60006113376110dd565b905061134382826112fc565b919050565b600067ffffffffffffffff821115611363576113626112cd565b5b61136c82610f31565b9050602081019050919050565b82818337600083830152505050565b600061139b61139684611348565b61132d565b9050828152602081018484840111156113b7576113b66112c8565b5b6113c2848285611379565b509392505050565b600082601f8301126113df576113de6112c3565b5b81356113ef848260208601611388565b91505092915050565b60006020828403121561140e5761140d6110e7565b5b600082013567ffffffffffffffff81111561142c5761142b6110ec565b5b611438848285016113ca565b91505092915050565b6000604082019050818103600083015261145b818561124c565b905061146a602083018461119d565b9392505050565b7f4e487b7100000000000000000000000000000000000000000000000000000000600052603260045260246000fd5b7f4e487b7100000000000000000000000000000000000000000000000000000000600052602260045260246000fd5b600060028204905060018216806114e757607f821691505b6020821081036114fa576114f96114a0565b5b50919050565b7f44656a6120766f74650000000000000000000000000000000000000000000000600082015250565b600061153660098361123b565b915061154182611500565b602082019050919050565b6000602082019050818103600083015261156581611529565b9050919050565b7f43616e646964617420696e76616c696465000000000000000000000000000000600082015250565b60006115a260118361123b565b91506115ad8261156c565b602082019050919050565b600060208201905081810360008301526115d181611595565b9050919050565b7f4e487b7100000000000000000000000000000000000000000000000000000000600052601160045260246000fd5b600061161282610fbc565b915061161d83610fbc565b9250828201905080821115611635576116346115d8565b5b92915050565b7f4e6f6d2072657175697300000000000000000000000000000000000000000000600082015250565b6000611671600a8361123b565b915061167c8261163b565b602082019050919050565b600060208201905081810360008301526116a081611664565b9050919050565b7f44656a612063616e646964617400000000000000000000000000000000000000600082015250565b60006116dd600d8361123b565b91506116e8826116a7565b602082019050919050565b6000602082019050818103600083015261170c816116d0565b9050919050565b7f4c696d6974652064652063616e6469646174732061747465696e746500000000600082015250565b6000611749601c8361123b565b915061175482611713565b602082019050919050565b600060208201905081810360008301526117788161173c565b9050919050565b60008190508160005260206000209050919050565b60006020601f8301049050919050565b600082821b905092915050565b6000600883026117e17fffffffffffffffffffffffffffffffffffffffffffffffffffffffffffffffff826117a4565b6117eb86836117a4565b95508019841693508086168417925050509392505050565b6000819050919050565b600061182861182361181e84610fbc565b611803565b610fbc565b9050919050565b6000819050919050565b6118428361180d565b61185661184e8261182f565b8484546117b1565b825550505050565b600090565b61186b61185e565b611876818484611839565b505050565b5b8181101561189a5761188f600082611863565b60018101905061187c565b5050565b601f8211156118df576118b08161177f565b6118b984611794565b810160208510156118c8578190505b6118dc6118d485611794565b83018261187b565b50505b505050565b600082821c905092915050565b6000611902600019846008026118e4565b1980831691505092915050565b600061191b83836118f1565b9150826002028217905092915050565b61193482610eeb565b67ffffffffffffffff81111561194d5761194c6112cd565b5b61195782546114cf565b61196282828561189e565b600060209050601f8311600181146119955760008415611983578287015190505b61198d858261190f565b8655506119f5565b601f1984166119a38661177f565b60005b828110156119cb578489015182556001820191506020850194506020810190506119a6565b868310156119e857848901516119e4601f8916826118f1565b8355505b6001600288020188555050505b50505050505056fea2646970667358221220377bb1e497944bb2fd4d31d39f29d7a9652b5f0ffe9487d3b2ec92e095497ec664736f6c634300081c0033",
  "linkReferences": {},
  "deployedLinkReferences": {}
}