{
  "_format": "hh-sol-artifact-1",
  "contractName": "Safe",
  "sourceName": "contracts/Safe.sol",
  "abi": [
    {
      "inputs": [],
      "stateMutability": "nonpayable",
      "type": "constructor"
    },
    {
      "inputs": [
        {
          "internalType": "uint256",
          "name": "",
          "type": "uint256"
        }
      ],
      "name": "candidateList",
      "outputs": [
        {
          "internalType": "address",
          "name": "",
          "type": "address"
        }
      ],
      "stateMutability": "view",
      "type": "function"
    },
    {
      "inputs": [
        {
          "internalType": "address",
          "name": "",
          "type": "address"
        }
      ],
      "name": "candidates",
      "outputs": [
        {
          "internalType": "string",
          "name": "name",
          "type": "string"
        },
        {
          "internalType": "address",
          "name": "addr",
          "type": "address"
        },
        {
          "internalType": "uint256",
          "name": "voteCount",
          "type": "uint256"
        }
      ],
      "stateMutability": "view",
      "type": "function"
    },
    {
      "inputs": [
        {
          "internalType": "address",
          "name": "_addr",
          "type": "address"
        }
      ],
      "name": "getCandidate",
      "outputs": [
        {
          "internalType": "string",
          "name": "name",
          "type": "string"
        },
        {
          "internalType": "uint256",
          "name": "voteCount",
          "type": "uint256"
        }
      ],
      "stateMutability": "view",
      "type": "function"
    },
    {
      "inputs": [],
      "name": "getCandidateCount",
      "outputs": [
        {
          "internalType": "uint256",
          "name": "",
          "type": "uint256"
        }
      ],
      "stateMutability": "view",
      "type": "function"
    },
    {
      "inputs": [],
      "name": "getCandidates",
      "outputs": [
        {
          "components": [
            {
              "internalType": "string",
              "name": "name",
              "type": "string"
            },
            {
              "internalType": "address",
              "name": "addr",
              "type": "address"
            },
            {
              "internalType": "uint256",
              "name": "voteCount",
              "type": "uint256"
            }
          ],
          "internalType": "struct Safe.Candidate[]",
          "name": "",
          "type": "tuple[]"
        }
      ],
      "stateMutability": "view",
      "type": "function"
    },
    {
      "inputs": [],
      "name": "getVoterCount",
      "outputs": [
        {
          "internalType": "uint256",
          "name": "",
          "type": "uint256"
        }
      ],
      "stateMutability": "view",
      "type": "function"
    },
    {
      "inputs": [
        {
          "internalType": "address",
          "name": "_addr",
          "type": "address"
        }
      ],
      "name": "hasVoted",
      "outputs": [
        {
          "internalType": "bool",
          "name": "",
          "type": "bool"
        },
        {
          "internalType": "address",
          "name": "",
          "type": "address"
        }
      ],
      "stateMutability": "view",
      "type": "function"
    },
    {
      "inputs": [],
      "name": "owner",
      "outputs": [
        {
          "internalType": "address",
          "name": "",
          "type": "address"
        }
      ],
      "stateMutability": "view",
      "type": "function"
    },
    {
      "inputs": [
        {
          "internalType": "string",
          "name": "_name",
          "type": "string"
        }
      ],
      "name": "registerAsCandidate",
      "outputs": [],
      "stateMutability": "nonpayable",
      "type": "function"
    },
    {
      "inputs": [
        {
          "internalType": "address",
          "name": "_candidateAddr",
          "type": "address"
        }
      ],
      "name": "vote",
      "outputs": [],
      "stateMutability": "nonpayable",
      "type": "function"
    },
    {
      "inputs": [
        {
          "internalType": "uint256",
          "name": "",
          "type": "uint256"
        }
      ],
      "name": "voterList",
      "outputs": [
        {
          "internalType": "address",
          "name": "",
          "type": "address"
        }
      ],
      "stateMutability": "view",
      "type": "function"
    },
    {
      "inputs": [
        {
          "internalType": "address",
          "name": "",
          "type": "address"
        }
      ],
      "name": "voters",
      "outputs": [
        {
          "internalType": "bool",
          "name": "hasVoted",
          "type": "bool"
        },
        {
          "internalType": "address",
          "name": "votedCandidate",
          "type": "address"
        }
      ],
      "stateMutability": "view",
      "type": "function"
    }
  ],
  "bytecode": "0x6080604052348015600f57600080fd5b50336000806101000a81548173ffffffffffffffffffffffffffffffffffffffff021916908373ffffffffffffffffffffffffffffffffffffffff1602179055506119428061005f6000396000f3fe608060405234801561001057600080fd5b50600436106100b45760003560e01c80638ab66a90116100715780638ab66a90146101905780638da5cb5b146101c2578063a3ec138d146101e0578063b13c744b14610211578063b52087c114610241578063b7adcf1d1461025d576100b4565b806306a49fce146100b957806309eef43e146100d757806311174a291461010857806330a563471461012657806350e2e8af146101445780636dd7d8ea14610174575b600080fd5b6100c161028e565b6040516100ce9190611036565b60405180910390f35b6100f160048036038101906100ec9190611098565b6104aa565b6040516100ff9291906110ef565b60405180910390f35b610110610580565b60405161011d9190611127565b60405180910390f35b61012e61058d565b60405161013b9190611127565b60405180910390f35b61015e6004803603810190610159919061116e565b61059a565b60405161016b919061119b565b60405180910390f35b61018e60048036038101906101899190611098565b6105d9565b005b6101aa60048036038101906101a59190611098565b6108d0565b6040516101b993929190611200565b60405180910390f35b6101ca6109a2565b6040516101d7919061119b565b60405180910390f35b6101fa60048036038101906101f59190611098565b6109c6565b6040516102089291906110ef565b60405180910390f35b61022b6004803603810190610226919061116e565b610a17565b604051610238919061119b565b60405180910390f35b61025b60048036038101906102569190611373565b610a56565b005b61027760048036038101906102729190611098565b610cac565b6040516102859291906113bc565b60405180910390f35b6060600060028054905067ffffffffffffffff8111156102b1576102b0611248565b5b6040519080825280602002602001820160405280156102ea57816020015b6102d7610e03565b8152602001906001900390816102cf5790505b50905060005b6002805490508110156104a2576001600060028381548110610315576103146113ec565b5b9060005260206000200160009054906101000a900473ffffffffffffffffffffffffffffffffffffffff1673ffffffffffffffffffffffffffffffffffffffff1673ffffffffffffffffffffffffffffffffffffffff1681526020019081526020016000206040518060600160405290816000820180546103959061144a565b80601f01602080910402602001604051908101604052809291908181526020018280546103c19061144a565b801561040e5780601f106103e35761010080835404028352916020019161040e565b820191906000526020600020905b8154815290600101906020018083116103f157829003601f168201915b505050505081526020016001820160009054906101000a900473ffffffffffffffffffffffffffffffffffffffff1673ffffffffffffffffffffffffffffffffffffffff1673ffffffffffffffffffffffffffffffffffffffff16815260200160028201548152505082828151811061048a576104896113ec565b5b602002602001018190525080806001019150506102f0565b508091505090565b6000806000600360008573ffffffffffffffffffffffffffffffffffffffff1673ffffffffffffffffffffffffffffffffffffffff1681526020019081526020016000206040518060400160405290816000820160009054906101000a900460ff161515151581526020016000820160019054906101000a900473ffffffffffffffffffffffffffffffffffffffff1673ffffffffffffffffffffffffffffffffffffffff1673ffffffffffffffffffffffffffffffffffffffff16815250509050806000015181602001519250925050915091565b6000600480549050905090565b6000600280549050905090565b600481815481106105aa57600080fd5b906000526020600020016000915054906101000a900473ffffffffffffffffffffffffffffffffffffffff1681565b600360003373ffffffffffffffffffffffffffffffffffffffff1673ffffffffffffffffffffffffffffffffffffffff16815260200190815260200160002060000160009054906101000a900460ff1615610669576040517f08c379a0000000000000000000000000000000000000000000000000000000008152600401610660906114c7565b60405180910390fd5b600073ffffffffffffffffffffffffffffffffffffffff16600160008373ffffffffffffffffffffffffffffffffffffffff1673ffffffffffffffffffffffffffffffffffffffff16815260200190815260200160002060010160009054906101000a900473ffffffffffffffffffffffffffffffffffffffff1673ffffffffffffffffffffffffffffffffffffffff160361073a576040517f08c379a000000000000000000000000000000000000000000000000000000000815260040161073190611533565b60405180910390fd5b60405180604001604052806001151581526020018273ffffffffffffffffffffffffffffffffffffffff16815250600360003373ffffffffffffffffffffffffffffffffffffffff1673ffffffffffffffffffffffffffffffffffffffff16815260200190815260200160002060008201518160000160006101000a81548160ff02191690831515021790555060208201518160000160016101000a81548173ffffffffffffffffffffffffffffffffffffffff021916908373ffffffffffffffffffffffffffffffffffffffff16021790555090505060018060008373ffffffffffffffffffffffffffffffffffffffff1673ffffffffffffffffffffffffffffffffffffffff16815260200190815260200160002060020160008282546108639190611582565b925050819055506004339080600181540180825580915050600190039060005260206000200160009091909190916101000a81548173ffffffffffffffffffffffffffffffffffffffff021916908373ffffffffffffffffffffffffffffffffffffffff16021790555050565b60016020528060005260406000206000915090508060000180546108f39061144a565b80601f016020809104026020016040519081016040528092919081815260200182805461091f9061144a565b801561096c5780601f106109415761010080835404028352916020019161096c565b820191906000526020600020905b81548152906001019060200180831161094f57829003601f168201915b5050505050908060010160009054906101000a900473ffffffffffffffffffffffffffffffffffffffff16908060020154905083565b60008054906101000a900473ffffffffffffffffffffffffffffffffffffffff1681565b60036020528060005260406000206000915090508060000160009054906101000a900460ff16908060000160019054906101000a900473ffffffffffffffffffffffffffffffffffffffff16905082565b60028181548110610a2757600080fd5b906000526020600020016000915054906101000a900473ffffffffffffffffffffffffffffffffffffffff1681565b6000815111610a9a576040517f08c379a0000000000000000000000000000000000000000000000000000000008152600401610a9190611602565b60405180910390fd5b600073ffffffffffffffffffffffffffffffffffffffff16600160003373ffffffffffffffffffffffffffffffffffffffff1673ffffffffffffffffffffffffffffffffffffffff16815260200190815260200160002060010160009054906101000a900473ffffffffffffffffffffffffffffffffffffffff1673ffffffffffffffffffffffffffffffffffffffff1614610b6b576040517f08c379a0000000000000000000000000000000000000000000000000000000008152600401610b629061166e565b60405180910390fd5b60405180606001604052808281526020013373ffffffffffffffffffffffffffffffffffffffff1681526020016000815250600160003373ffffffffffffffffffffffffffffffffffffffff1673ffffffffffffffffffffffffffffffffffffffff1681526020019081526020016000206000820151816000019081610bf1919061183a565b5060208201518160010160006101000a81548173ffffffffffffffffffffffffffffffffffffffff021916908373ffffffffffffffffffffffffffffffffffffffff160217905550604082015181600201559050506002339080600181540180825580915050600190039060005260206000200160009091909190916101000a81548173ffffffffffffffffffffffffffffffffffffffff021916908373ffffffffffffffffffffffffffffffffffffffff16021790555050565b6060600080600160008573ffffffffffffffffffffffffffffffffffffffff1673ffffffffffffffffffffffffffffffffffffffff168152602001908152602001600020604051806060016040529081600082018054610d0b9061144a565b80601f0160208091040260200160405190810160405280929190818152602001828054610d379061144a565b8015610d845780601f10610d5957610100808354040283529160200191610d84565b820191906000526020600020905b815481529060010190602001808311610d6757829003601f168201915b505050505081526020016001820160009054906101000a900473ffffffffffffffffffffffffffffffffffffffff1673ffffffffffffffffffffffffffffffffffffffff1673ffffffffffffffffffffffffffffffffffffffff1681526020016002820154815250509050806000015181604001519250925050915091565b604051806060016040528060608152602001600073ffffffffffffffffffffffffffffffffffffffff168152602001600081525090565b600081519050919050565b600082825260208201905092915050565b6000819050602082019050919050565b600081519050919050565b600082825260208201905092915050565b60005b83811015610ea0578082015181840152602081019050610e85565b60008484015250505050565b6000601f19601f8301169050919050565b6000610ec882610e66565b610ed28185610e71565b9350610ee2818560208601610e82565b610eeb81610eac565b840191505092915050565b600073ffffffffffffffffffffffffffffffffffffffff82169050919050565b6000610f2182610ef6565b9050919050565b610f3181610f16565b82525050565b6000819050919050565b610f4a81610f37565b82525050565b60006060830160008301518482036000860152610f6d8282610ebd565b9150506020830151610f826020860182610f28565b506040830151610f956040860182610f41565b508091505092915050565b6000610fac8383610f50565b905092915050565b6000602082019050919050565b6000610fcc82610e3a565b610fd68185610e45565b935083602082028501610fe885610e56565b8060005b8581101561102457848403895281516110058582610fa0565b945061101083610fb4565b925060208a01995050600181019050610fec565b50829750879550505050505092915050565b600060208201905081810360008301526110508184610fc1565b905092915050565b6000604051905090565b600080fd5b600080fd5b61107581610f16565b811461108057600080fd5b50565b6000813590506110928161106c565b92915050565b6000602082840312156110ae576110ad611062565b5b60006110bc84828501611083565b91505092915050565b60008115159050919050565b6110da816110c5565b82525050565b6110e981610f16565b82525050565b600060408201905061110460008301856110d1565b61111160208301846110e0565b9392505050565b61112181610f37565b82525050565b600060208201905061113c6000830184611118565b92915050565b61114b81610f37565b811461115657600080fd5b50565b60008135905061116881611142565b92915050565b60006020828403121561118457611183611062565b5b600061119284828501611159565b91505092915050565b60006020820190506111b060008301846110e0565b92915050565b600082825260208201905092915050565b60006111d282610e66565b6111dc81856111b6565b93506111ec818560208601610e82565b6111f581610eac565b840191505092915050565b6000606082019050818103600083015261121a81866111c7565b905061122960208301856110e0565b6112366040830184611118565b949350505050565b600080fd5b600080fd5b7f4e487b7100000000000000000000000000000000000000000000000000000000600052604160045260246000fd5b61128082610eac565b810181811067ffffffffffffffff8211171561129f5761129e611248565b5b80604052505050565b60006112b2611058565b90506112be8282611277565b919050565b600067ffffffffffffffff8211156112de576112dd611248565b5b6112e782610eac565b9050602081019050919050565b82818337600083830152505050565b6000611316611311846112c3565b6112a8565b90508281526020810184848401111561133257611331611243565b5b61133d8482856112f4565b509392505050565b600082601f83011261135a5761135961123e565b5b813561136a848260208601611303565b91505092915050565b60006020828403121561138957611388611062565b5b600082013567ffffffffffffffff8111156113a7576113a6611067565b5b6113b384828501611345565b91505092915050565b600060408201905081810360008301526113d681856111c7565b90506113e56020830184611118565b9392505050565b7f4e487b7100000000000000000000000000000000000000000000000000000000600052603260045260246000fd5b7f4e487b7100000000000000000000000000000000000000000000000000000000600052602260045260246000fd5b6000600282049050600182168061146257607f821691505b6020821081036114755761147461141b565b5b50919050565b7f44656a6120766f74650000000000000000000000000000000000000000000000600082015250565b60006114b16009836111b6565b91506114bc8261147b565b602082019050919050565b600060208201905081810360008301526114e0816114a4565b9050919050565b7f43616e646964617420696e76616c696465000000000000000000000000000000600082015250565b600061151d6011836111b6565b9150611528826114e7565b602082019050919050565b6000602082019050818103600083015261154c81611510565b9050919050565b7f4e487b7100000000000000000000000000000000000000000000000000000000600052601160045260246000fd5b600061158d82610f37565b915061159883610f37565b92508282019050808211156115b0576115af611553565b5b92915050565b7f4e6f6d2072657175697300000000000000000000000000000000000000000000600082015250565b60006115ec600a836111b6565b91506115f7826115b6565b602082019050919050565b6000602082019050818103600083015261161b816115df565b9050919050565b7f44656a612063616e646964617400000000000000000000000000000000000000600082015250565b6000611658600d836111b6565b915061166382611622565b602082019050919050565b600060208201905081810360008301526116878161164b565b9050919050565b60008190508160005260206000209050919050565b60006020601f8301049050919050565b600082821b905092915050565b6000600883026116f07fffffffffffffffffffffffffffffffffffffffffffffffffffffffffffffffff826116b3565b6116fa86836116b3565b95508019841693508086168417925050509392505050565b6000819050919050565b600061173761173261172d84610f37565b611712565b610f37565b9050919050565b6000819050919050565b6117518361171c565b61176561175d8261173e565b8484546116c0565b825550505050565b600090565b61177a61176d565b611785818484611748565b505050565b5b818110156117a95761179e600082611772565b60018101905061178b565b5050565b601f8211156117ee576117bf8161168e565b6117c8846116a3565b810160208510156117d7578190505b6117eb6117e3856116a3565b83018261178a565b50505b505050565b600082821c905092915050565b6000611811600019846008026117f3565b1980831691505092915050565b600061182a8383611800565b9150826002028217905092915050565b61184382610e66565b67ffffffffffffffff81111561185c5761185b611248565b5b611866825461144a565b6118718282856117ad565b600060209050601f8311600181146118a45760008415611892578287015190505b61189c858261181e565b865550611904565b601f1984166118b28661168e565b60005b828110156118da578489015182556001820191506020850194506020810190506118b5565b868310156118f757848901516118f3601f891682611800565b8355505b6001600288020188555050505b50505050505056fea26469706673582212201180594588a2389b702d1f45e92fccef3d57abb04d583fee732131939047789d64736f6c634300081c0033",
  "linkReferences": {},
  "deployedLinkReferences": {}
}