{
  "_format": "hh-sol-artifact-1",
  "contractName": "Safe",
  "sourceName": "contracts/Safe.sol",
  "abi": [
    {
      "inputs": [],
      "stateMutability": "nonpayable",
      "type": "constructor"
    },
    {
      "inputs": [
        {
          "internalType": "address",
          "name": "",
          "type": "address"
        }
      ],
      "name": "balanceAdd",
      "outputs": [
        {
          "internalType": "uint256",
          "name": "",
          "type": "uint256"
        }
      ],
      "stateMutability": "view",
      "type": "function"
    },
    {
      "inputs": [
        {
          "internalType": "address",
          "name": "_addr",
          "type": "address"
        }
      ],
      "name": "getVoter",
      "outputs": [
        {
          "internalType": "string",
          "name": "name",
          "type": "string"
        },
        {
          "internalType": "bool",
          "name": "registered",
          "type": "bool"
        }
      ],
      "stateMutability": "view",
      "type": "function"
    },
    {
      "inputs": [],
      "name": "getVoters",
      "outputs": [
        {
          "internalType": "address[]",
          "name": "",
          "type": "address[]"
        }
      ],
      "stateMutability": "view",
      "type": "function"
    },
    {
      "inputs": [],
      "name": "owner",
      "outputs": [
        {
          "internalType": "address",
          "name": "",
          "type": "address"
        }
      ],
      "stateMutability": "view",
      "type": "function"
    },
    {
      "inputs": [
        {
          "internalType": "string",
          "name": "_name",
          "type": "string"
        }
      ],
      "name": "register",
      "outputs": [],
      "stateMutability": "nonpayable",
      "type": "function"
    },
    {
      "inputs": [],
      "name": "seeBalance",
      "outputs": [
        {
          "internalType": "uint256",
          "name": "",
          "type": "uint256"
        }
      ],
      "stateMutability": "view",
      "type": "function"
    },
    {
      "inputs": [],
      "name": "sendMoney",
      "outputs": [],
      "stateMutability": "payable",
      "type": "function"
    },
    {
      "inputs": [],
      "name": "viewBalance",
      "outputs": [
        {
          "internalType": "uint256",
          "name": "",
          "type": "uint256"
        }
      ],
      "stateMutability": "view",
      "type": "function"
    },
    {
      "inputs": [
        {
          "internalType": "uint256",
          "name": "",
          "type": "uint256"
        }
      ],
      "name": "voterList",
      "outputs": [
        {
          "internalType": "address",
          "name": "",
          "type": "address"
        }
      ],
      "stateMutability": "view",
      "type": "function"
    },
    {
      "inputs": [
        {
          "internalType": "address",
          "name": "",
          "type": "address"
        }
      ],
      "name": "voters",
      "outputs": [
        {
          "internalType": "string",
          "name": "name",
          "type": "string"
        },
        {
          "internalType": "bool",
          "name": "isRegistered",
          "type": "bool"
        }
      ],
      "stateMutability": "view",
      "type": "function"
    },
    {
      "inputs": [
        {
          "internalType": "uint256",
          "name": "amount",
          "type": "uint256"
        }
      ],
      "name": "withdraw",
      "outputs": [],
      "stateMutability": "nonpayable",
      "type": "function"
    }
  ],
  "bytecode": "0x6080604052348015600f57600080fd5b50336000806101000a81548173ffffffffffffffffffffffffffffffffffffffff021916908373ffffffffffffffffffffffffffffffffffffffff1602179055506113848061005f6000396000f3fe60806040526004361061009c5760003560e01c80638da5cb5b116100645780638da5cb5b1461019a578063a3ec138d146101c5578063cbedbf5a14610203578063cdd722531461020d578063d4f50f9814610238578063f2c298be146102765761009c565b80632e1a7d4d146100a15780633ff1e05b146100ca578063429a1bb0146100f557806350e2e8af14610120578063660340431461015d575b600080fd5b3480156100ad57600080fd5b506100c860048036038101906100c391906109e4565b61029f565b005b3480156100d657600080fd5b506100df61044f565b6040516100ec9190610a20565b60405180910390f35b34801561010157600080fd5b5061010a610457565b6040516101179190610a20565b60405180910390f35b34801561012c57600080fd5b50610147600480360381019061014291906109e4565b61049e565b6040516101549190610a7c565b60405180910390f35b34801561016957600080fd5b50610184600480360381019061017f9190610ac3565b6104dd565b6040516101919190610a20565b60405180910390f35b3480156101a657600080fd5b506101af6104f5565b6040516101bc9190610a7c565b60405180910390f35b3480156101d157600080fd5b506101ec60048036038101906101e79190610ac3565b610519565b6040516101fa929190610b9b565b60405180910390f35b61020b6105d2565b005b34801561021957600080fd5b50610222610674565b60405161022f9190610c89565b60405180910390f35b34801561024457600080fd5b5061025f600480360381019061025a9190610ac3565b610702565b60405161026d929190610b9b565b60405180910390f35b34801561028257600080fd5b5061029d60048036038101906102989190610de0565b610814565b005b60008054906101000a900473ffffffffffffffffffffffffffffffffffffffff1673ffffffffffffffffffffffffffffffffffffffff163373ffffffffffffffffffffffffffffffffffffffff161461032d576040517f08c379a000000000000000000000000000000000000000000000000000000000815260040161032490610e75565b60405180910390fd5b80600160003373ffffffffffffffffffffffffffffffffffffffff1673ffffffffffffffffffffffffffffffffffffffff1681526020019081526020016000205410156103af576040517f08c379a00000000000000000000000000000000000000000000000000000000081526004016103a690610ee1565b60405180910390fd5b80600160003373ffffffffffffffffffffffffffffffffffffffff1673ffffffffffffffffffffffffffffffffffffffff16815260200190815260200160002060008282546103fe9190610f30565b925050819055503373ffffffffffffffffffffffffffffffffffffffff166108fc829081150290604051600060405180830381858888f1935050505015801561044b573d6000803e3d6000fd5b5050565b600047905090565b6000600160003373ffffffffffffffffffffffffffffffffffffffff1673ffffffffffffffffffffffffffffffffffffffff16815260200190815260200160002054905090565b600381815481106104ae57600080fd5b906000526020600020016000915054906101000a900473ffffffffffffffffffffffffffffffffffffffff1681565b60016020528060005260406000206000915090505481565b60008054906101000a900473ffffffffffffffffffffffffffffffffffffffff1681565b600260205280600052604060002060009150905080600001805461053c90610f93565b80601f016020809104026020016040519081016040528092919081815260200182805461056890610f93565b80156105b55780601f1061058a576101008083540402835291602001916105b5565b820191906000526020600020905b81548152906001019060200180831161059857829003601f168201915b5050505050908060010160009054906101000a900460ff16905082565b662386f26fc1000034101561061c576040517f08c379a000000000000000000000000000000000000000000000000000000000815260040161061390611010565b60405180910390fd5b34600160003373ffffffffffffffffffffffffffffffffffffffff1673ffffffffffffffffffffffffffffffffffffffff168152602001908152602001600020600082825461066b9190611030565b92505081905550565b606060038054806020026020016040519081016040528092919081815260200182805480156106f857602002820191906000526020600020905b8160009054906101000a900473ffffffffffffffffffffffffffffffffffffffff1673ffffffffffffffffffffffffffffffffffffffff16815260200190600101908083116106ae575b5050505050905090565b6060600080600260008573ffffffffffffffffffffffffffffffffffffffff1673ffffffffffffffffffffffffffffffffffffffff16815260200190815260200160002060405180604001604052908160008201805461076190610f93565b80601f016020809104026020016040519081016040528092919081815260200182805461078d90610f93565b80156107da5780601f106107af576101008083540402835291602001916107da565b820191906000526020600020905b8154815290600101906020018083116107bd57829003601f168201915b505050505081526020016001820160009054906101000a900460ff1615151515815250509050806000015181602001519250925050915091565b600260003373ffffffffffffffffffffffffffffffffffffffff1673ffffffffffffffffffffffffffffffffffffffff16815260200190815260200160002060010160009054906101000a900460ff16156108a4576040517f08c379a000000000000000000000000000000000000000000000000000000000815260040161089b906110b0565b60405180910390fd5b604051806040016040528082815260200160011515815250600260003373ffffffffffffffffffffffffffffffffffffffff1673ffffffffffffffffffffffffffffffffffffffff1681526020019081526020016000206000820151816000019081610910919061127c565b5060208201518160010160006101000a81548160ff0219169083151502179055509050506003339080600181540180825580915050600190039060005260206000200160009091909190916101000a81548173ffffffffffffffffffffffffffffffffffffffff021916908373ffffffffffffffffffffffffffffffffffffffff16021790555050565b6000604051905090565b600080fd5b600080fd5b6000819050919050565b6109c1816109ae565b81146109cc57600080fd5b50565b6000813590506109de816109b8565b92915050565b6000602082840312156109fa576109f96109a4565b5b6000610a08848285016109cf565b91505092915050565b610a1a816109ae565b82525050565b6000602082019050610a356000830184610a11565b92915050565b600073ffffffffffffffffffffffffffffffffffffffff82169050919050565b6000610a6682610a3b565b9050919050565b610a7681610a5b565b82525050565b6000602082019050610a916000830184610a6d565b92915050565b610aa081610a5b565b8114610aab57600080fd5b50565b600081359050610abd81610a97565b92915050565b600060208284031215610ad957610ad86109a4565b5b6000610ae784828501610aae565b91505092915050565b600081519050919050565b600082825260208201905092915050565b60005b83811015610b2a578082015181840152602081019050610b0f565b60008484015250505050565b6000601f19601f8301169050919050565b6000610b5282610af0565b610b5c8185610afb565b9350610b6c818560208601610b0c565b610b7581610b36565b840191505092915050565b60008115159050919050565b610b9581610b80565b82525050565b60006040820190508181036000830152610bb58185610b47565b9050610bc46020830184610b8c565b9392505050565b600081519050919050565b600082825260208201905092915050565b6000819050602082019050919050565b610c0081610a5b565b82525050565b6000610c128383610bf7565b60208301905092915050565b6000602082019050919050565b6000610c3682610bcb565b610c408185610bd6565b9350610c4b83610be7565b8060005b83811015610c7c578151610c638882610c06565b9750610c6e83610c1e565b925050600181019050610c4f565b5085935050505092915050565b60006020820190508181036000830152610ca38184610c2b565b905092915050565b600080fd5b600080fd5b7f4e487b7100000000000000000000000000000000000000000000000000000000600052604160045260246000fd5b610ced82610b36565b810181811067ffffffffffffffff82111715610d0c57610d0b610cb5565b5b80604052505050565b6000610d1f61099a565b9050610d2b8282610ce4565b919050565b600067ffffffffffffffff821115610d4b57610d4a610cb5565b5b610d5482610b36565b9050602081019050919050565b82818337600083830152505050565b6000610d83610d7e84610d30565b610d15565b905082815260208101848484011115610d9f57610d9e610cb0565b5b610daa848285610d61565b509392505050565b600082601f830112610dc757610dc6610cab565b5b8135610dd7848260208601610d70565b91505092915050565b600060208284031215610df657610df56109a4565b5b600082013567ffffffffffffffff811115610e1457610e136109a9565b5b610e2084828501610db2565b91505092915050565b7f4e6f7420746865206f776e657200000000000000000000000000000000000000600082015250565b6000610e5f600d83610afb565b9150610e6a82610e29565b602082019050919050565b60006020820190508181036000830152610e8e81610e52565b9050919050565b7f4e6f7420656e6f75676820657468000000000000000000000000000000000000600082015250565b6000610ecb600e83610afb565b9150610ed682610e95565b602082019050919050565b60006020820190508181036000830152610efa81610ebe565b9050919050565b7f4e487b7100000000000000000000000000000000000000000000000000000000600052601160045260246000fd5b6000610f3b826109ae565b9150610f46836109ae565b9250828203905081811115610f5e57610f5d610f01565b5b92915050565b7f4e487b7100000000000000000000000000000000000000000000000000000000600052602260045260246000fd5b60006002820490506001821680610fab57607f821691505b602082108103610fbe57610fbd610f64565b5b50919050565b7f4d696e696d756d20302e30312045544800000000000000000000000000000000600082015250565b6000610ffa601083610afb565b915061100582610fc4565b602082019050919050565b6000602082019050818103600083015261102981610fed565b9050919050565b600061103b826109ae565b9150611046836109ae565b925082820190508082111561105e5761105d610f01565b5b92915050565b7f416c726561647920726567697374657265640000000000000000000000000000600082015250565b600061109a601283610afb565b91506110a582611064565b602082019050919050565b600060208201905081810360008301526110c98161108d565b9050919050565b60008190508160005260206000209050919050565b60006020601f8301049050919050565b600082821b905092915050565b6000600883026111327fffffffffffffffffffffffffffffffffffffffffffffffffffffffffffffffff826110f5565b61113c86836110f5565b95508019841693508086168417925050509392505050565b6000819050919050565b600061117961117461116f846109ae565b611154565b6109ae565b9050919050565b6000819050919050565b6111938361115e565b6111a761119f82611180565b848454611102565b825550505050565b600090565b6111bc6111af565b6111c781848461118a565b505050565b5b818110156111eb576111e06000826111b4565b6001810190506111cd565b5050565b601f82111561123057611201816110d0565b61120a846110e5565b81016020851015611219578190505b61122d611225856110e5565b8301826111cc565b50505b505050565b600082821c905092915050565b600061125360001984600802611235565b1980831691505092915050565b600061126c8383611242565b9150826002028217905092915050565b61128582610af0565b67ffffffffffffffff81111561129e5761129d610cb5565b5b6112a88254610f93565b6112b38282856111ef565b600060209050601f8311600181146112e657600084156112d4578287015190505b6112de8582611260565b865550611346565b601f1984166112f4866110d0565b60005b8281101561131c578489015182556001820191506020850194506020810190506112f7565b868310156113395784890151611335601f891682611242565b8355505b6001600288020188555050505b50505050505056fea26469706673582212202ed2eb421225983b59a446253fe25d3c29ab771f81ef5c2e683544a61b29bf0e64736f6c634300081c0033",
  "linkReferences": {},
  "deployedLinkReferences": {}
}